{
  "contractName": "MedTech",
  "abi": [
    {
      "inputs": [],
      "payable": false,
      "stateMutability": "nonpayable",
      "type": "constructor"
    },
    {
      "constant": true,
      "inputs": [],
      "name": "name",
      "outputs": [
        {
          "internalType": "string",
          "name": "",
          "type": "string"
        }
      ],
      "payable": false,
      "stateMutability": "view",
      "type": "function"
    },
    {
      "constant": false,
      "inputs": [
        {
          "internalType": "string",
          "name": "_cid",
          "type": "string"
        }
      ],
      "name": "registerMedicationRecord",
      "outputs": [],
      "payable": false,
      "stateMutability": "nonpayable",
      "type": "function"
    },
    {
      "constant": true,
      "inputs": [
        {
          "internalType": "address",
          "name": "_patientAddr",
          "type": "address"
        }
      ],
      "name": "getPatientMedicationRecords",
      "outputs": [
        {
          "internalType": "string[]",
          "name": "",
          "type": "string[]"
        }
      ],
      "payable": false,
      "stateMutability": "view",
      "type": "function"
    }
  ],
  "bytecode": "0x608060405234801561001057600080fd5b50604080518082019091526007808252660dacac8a8cac6d60cb1b602090920191825261003f91600091610045565b506100e0565b828054600181600116156101000203166002900490600052602060002090601f016020900481019282601f1061008657805160ff19168380011785556100b3565b828001600101855582156100b3579182015b828111156100b3578251825591602001919060010190610098565b506100bf9291506100c3565b5090565b6100dd91905b808211156100bf57600081556001016100c9565b90565b6105ae806100ef6000396000f3fe608060405234801561001057600080fd5b50600436106100415760003560e01c806306fdde03146100465780632c6a0e37146100645780635cba966f14610079575b600080fd5b61004e610099565b60405161005b919061048a565b60405180910390f35b61007761007236600461038b565b610127565b005b61008c610087366004610365565b610177565b60405161005b9190610479565b6000805460408051602060026001851615610100026000190190941693909304601f8101849004840282018401909252818152929183018282801561011f5780601f106100f45761010080835404028352916020019161011f565b820191906000526020600020905b81548152906001019060200180831161010257829003601f168201915b505050505081565b3361013157600080fd5b600081511161013f57600080fd5b33600090815260016020818152604083208054928301808255908452928190208451610172939190910191850190610265565b505050565b6001600160a01b0381166000908152600160209081526040808320805482518185028101850190935280835260609492939192909184015b8282101561025a5760008481526020908190208301805460408051601f60026000196101006001871615020190941693909304928301859004850281018501909152818152928301828280156102465780601f1061021b57610100808354040283529160200191610246565b820191906000526020600020905b81548152906001019060200180831161022957829003601f168201915b5050505050815260200190600101906101af565b505050509050919050565b828054600181600116156101000203166002900490600052602060002090601f016020900481019282601f106102a657805160ff19168380011785556102d3565b828001600101855582156102d3579182015b828111156102d35782518255916020019190600101906102b8565b506102df9291506102e3565b5090565b6102fd91905b808211156102df57600081556001016102e9565b90565b803561030b81610554565b92915050565b600082601f83011261032257600080fd5b8135610335610330826104c2565b61049b565b9150808252602083016020830185838301111561035157600080fd5b61035c83828461050e565b50505092915050565b60006020828403121561037757600080fd5b60006103838484610300565b949350505050565b60006020828403121561039d57600080fd5b813567ffffffffffffffff8111156103b457600080fd5b61038384828501610311565b60006103cc8383610441565b9392505050565b60006103de826104f0565b6103e881856104f4565b9350836020820285016103fa856104ea565b8060005b85811015610434578484038952815161041785826103c0565b9450610422836104ea565b60209a909a01999250506001016103fe565b5091979650505050505050565b600061044c826104f0565b61045681856104f4565b935061046681856020860161051a565b61046f8161054a565b9093019392505050565b602080825281016103cc81846103d3565b602080825281016103cc8184610441565b60405181810167ffffffffffffffff811182821017156104ba57600080fd5b604052919050565b600067ffffffffffffffff8211156104d957600080fd5b506020601f91909101601f19160190565b60200190565b5190565b90815260200190565b60006001600160a01b03821661030b565b82818337506000910152565b60005b8381101561053557818101518382015260200161051d565b83811115610544576000848401525b50505050565b601f01601f191690565b61055d816104fd565b811461056857600080fd5b5056fea365627a7a72315820c4fbecd4e0e1a04900d3fe45de2d1aab27027f138c9fec7cf3bf091a6843749b6c6578706572696d656e74616cf564736f6c63430005100040",
  "source": "// SPDX-License-Identifier: MIT\npragma solidity >=0.4.22 <0.9.0;\n\npragma experimental ABIEncoderV2;\n\ncontract MedTech {\n    string public name;\n\n    struct Patient {\n        string[] medicationRecords;\n    }\n\n    mapping(address => Patient) private patients; \n\n    constructor() public {\n        name = \"medTech\";\n    }\n\n    function registerMedicationRecord(string memory _cid) public {\n        require(msg.sender != address(0));\n        require(bytes(_cid).length > 0);\n        \n        patients[msg.sender].medicationRecords.push(_cid);\n    }\n\n    function getPatientMedicationRecords(address _patientAddr) public view returns (string[] memory) {\n        return patients[_patientAddr].medicationRecords;\n    }\n}",
  "sourcePath": "D:\\Capstone\\Blockchain\\medTech\\truffle\\contracts\\MedTech.sol",
  "compiler": {
    "name": "solc",
    "version": "0.5.16+commit.9c3226ce.Emscripten.clang"
  },
  "schemaVersion": "3.4.16",
  "updatedAt": "2024-02-28T13:36:43.422Z",
  "networkType": "ethereum",
  "devdoc": {
    "methods": {}
  },
  "userdoc": {
    "methods": {}
  }
}