{
  "contractName": "MedTech",
  "abi": [
    {
      "inputs": [],
      "payable": false,
      "stateMutability": "nonpayable",
      "type": "constructor"
    },
    {
      "constant": true,
      "inputs": [],
      "name": "name",
      "outputs": [
        {
          "internalType": "string",
          "name": "",
          "type": "string"
        }
      ],
      "payable": false,
      "stateMutability": "view",
      "type": "function"
    },
    {
      "constant": true,
      "inputs": [
        {
          "internalType": "address",
          "name": "",
          "type": "address"
        }
      ],
      "name": "patientIPNSAddresses",
      "outputs": [
        {
          "internalType": "string",
          "name": "",
          "type": "string"
        }
      ],
      "payable": false,
      "stateMutability": "view",
      "type": "function"
    },
    {
      "constant": false,
      "inputs": [
        {
          "internalType": "string",
          "name": "_ipnsAddress",
          "type": "string"
        }
      ],
      "name": "registerPatientIPNS",
      "outputs": [],
      "payable": false,
      "stateMutability": "nonpayable",
      "type": "function"
    },
    {
      "constant": true,
      "inputs": [
        {
          "internalType": "address",
          "name": "_patientAddr",
          "type": "address"
        }
      ],
      "name": "getPatientIPNS",
      "outputs": [
        {
          "internalType": "string",
          "name": "",
          "type": "string"
        }
      ],
      "payable": false,
      "stateMutability": "view",
      "type": "function"
    }
  ],
  "bytecode": "0x608060405234801561001057600080fd5b50604080518082019091526007808252660dacac8a8cac6d60cb1b602090920191825261003f91600091610045565b506100e0565b828054600181600116156101000203166002900490600052602060002090601f016020900481019282601f1061008657805160ff19168380011785556100b3565b828001600101855582156100b3579182015b828111156100b3578251825591602001919060010190610098565b506100bf9291506100c3565b5090565b6100dd91905b808211156100bf57600081556001016100c9565b90565b61046e806100ef6000396000f3fe608060405234801561001057600080fd5b506004361061004c5760003560e01c806306fdde03146100515780635068a495146100ce578063b1f84dea14610176578063ba23e3951461019c575b600080fd5b6100596101c2565b6040805160208082528351818301528351919283929083019185019080838360005b8381101561009357818101518382015260200161007b565b50505050905090810190601f1680156100c05780820380516001836020036101000a031916815260200191505b509250505060405180910390f35b610174600480360360208110156100e457600080fd5b8101906020810181356401000000008111156100ff57600080fd5b82018360208201111561011157600080fd5b8035906020019184600183028401116401000000008311171561013357600080fd5b91908080601f016020809104026020016040519081016040528093929190818152602001838380828437600092019190915250929550610250945050505050565b005b6100596004803603602081101561018c57600080fd5b50356001600160a01b031661028d565b610059600480360360208110156101b257600080fd5b50356001600160a01b0316610337565b6000805460408051602060026001851615610100026000190190941693909304601f810184900484028201840190925281815292918301828280156102485780601f1061021d57610100808354040283529160200191610248565b820191906000526020600020905b81548152906001019060200180831161022b57829003601f168201915b505050505081565b3361025a57600080fd5b600081511161026857600080fd5b33600081815260016020908152604090912083516102889285019061039e565b505050565b6001600160a01b03811660009081526001602081815260409283902080548451600294821615610100026000190190911693909304601f8101839004830284018301909452838352606093909183018282801561032b5780601f106103005761010080835404028352916020019161032b565b820191906000526020600020905b81548152906001019060200180831161030e57829003601f168201915b50505050509050919050565b60016020818152600092835260409283902080548451600294821615610100026000190190911693909304601f81018390048302840183019094528383529192908301828280156102485780601f1061021d57610100808354040283529160200191610248565b828054600181600116156101000203166002900490600052602060002090601f016020900481019282601f106103df57805160ff191683800117855561040c565b8280016001018555821561040c579182015b8281111561040c5782518255916020019190600101906103f1565b5061041892915061041c565b5090565b61043691905b808211156104185760008155600101610422565b9056fea265627a7a7231582091bdfb66b23499c4248473a76e61d1468f443030df9296ab9705162077e59b2364736f6c63430005100032",
  "source": "// SPDX-License-Identifier: MIT\npragma solidity >=0.4.22 <0.9.0;\n\ncontract MedTech {\n    string public name;\n    mapping(address => string) public patientIPNSAddresses; // Store IPNS addresses instead of CIDs\n\n    constructor() public {\n        name = \"medTech\";\n    }\n\n    function registerPatientIPNS(string memory _ipnsAddress) public {\n        require(msg.sender != address(0));\n        require(bytes(_ipnsAddress).length > 0);\n        address _addr = msg.sender;\n\n        patientIPNSAddresses[_addr] = _ipnsAddress;\n    }\n\n    function getPatientIPNS(address _patientAddr) public view returns (string memory) {\n        return patientIPNSAddresses[_patientAddr];\n    }\n}\n",
  "sourcePath": "D:\\Capstone\\Blockchain\\medTech\\truffle\\contracts\\MedTech.sol",
  "compiler": {
    "name": "solc",
    "version": "0.5.16+commit.9c3226ce.Emscripten.clang"
  },
  "schemaVersion": "3.4.16",
  "updatedAt": "2024-02-08T02:54:08.091Z",
  "networkType": "ethereum",
  "devdoc": {
    "methods": {}
  },
  "userdoc": {
    "methods": {}
  }
}